{
  "abi": [
    {
      "inputs": [
        {
          "internalType": "uint256",
          "name": "entranceFee",
          "type": "uint256"
        },
        {
          "internalType": "uint256",
          "name": "interval",
          "type": "uint256"
        },
        {
          "internalType": "address",
          "name": "vrfCoordinator",
          "type": "address"
        },
        {
          "internalType": "bytes32",
          "name": "gasLane",
          "type": "bytes32"
        },
        {
          "internalType": "uint64",
          "name": "subscriptionId",
          "type": "uint64"
        },
        {
          "internalType": "uint32",
          "name": "callbackGasLimit",
          "type": "uint32"
        }
      ],
      "stateMutability": "nonpayable",
      "type": "constructor"
    },
    {
      "inputs": [
        {
          "internalType": "address",
          "name": "have",
          "type": "address"
        },
        {
          "internalType": "address",
          "name": "want",
          "type": "address"
        }
      ],
      "name": "OnlyCoordinatorCanFulfill",
      "type": "error"
    },
    {
      "inputs": [],
      "name": "Raffle__NotEnoughETHSent",
      "type": "error"
    },
    {
      "inputs": [],
      "name": "Raffle__RaffleNotOpen",
      "type": "error"
    },
    {
      "inputs": [],
      "name": "Raffle__TransferFailed",
      "type": "error"
    },
    {
      "inputs": [
        {
          "internalType": "uint256",
          "name": "currentBalance",
          "type": "uint256"
        },
        {
          "internalType": "uint256",
          "name": "numPlayers",
          "type": "uint256"
        },
        {
          "internalType": "uint256",
          "name": "raffleState",
          "type": "uint256"
        }
      ],
      "name": "Raffle__UpkeepNotNeeded",
      "type": "error"
    },
    {
      "anonymous": false,
      "inputs": [
        {
          "indexed": true,
          "internalType": "address",
          "name": "player",
          "type": "address"
        }
      ],
      "name": "EnteredRaffle",
      "type": "event"
    },
    {
      "anonymous": false,
      "inputs": [
        {
          "indexed": true,
          "internalType": "address",
          "name": "winner",
          "type": "address"
        }
      ],
      "name": "PickedWinner",
      "type": "event"
    },
    {
      "anonymous": false,
      "inputs": [
        {
          "indexed": true,
          "internalType": "uint256",
          "name": "requestId",
          "type": "uint256"
        }
      ],
      "name": "RequestedRaffleWinner",
      "type": "event"
    },
    {
      "inputs": [
        {
          "internalType": "bytes",
          "name": "",
          "type": "bytes"
        }
      ],
      "name": "checkUpKeep",
      "outputs": [
        {
          "internalType": "bool",
          "name": "upkeepNeeded",
          "type": "bool"
        },
        {
          "internalType": "bytes",
          "name": "",
          "type": "bytes"
        }
      ],
      "stateMutability": "view",
      "type": "function"
    },
    {
      "inputs": [],
      "name": "enterRaffle",
      "outputs": [],
      "stateMutability": "payable",
      "type": "function"
    },
    {
      "inputs": [],
      "name": "getEntranceFee",
      "outputs": [
        {
          "internalType": "uint256",
          "name": "",
          "type": "uint256"
        }
      ],
      "stateMutability": "view",
      "type": "function"
    },
    {
      "inputs": [],
      "name": "getLastTimeStamp",
      "outputs": [
        {
          "internalType": "uint256",
          "name": "",
          "type": "uint256"
        }
      ],
      "stateMutability": "view",
      "type": "function"
    },
    {
      "inputs": [],
      "name": "getLengthOfPlayers",
      "outputs": [
        {
          "internalType": "uint256",
          "name": "",
          "type": "uint256"
        }
      ],
      "stateMutability": "view",
      "type": "function"
    },
    {
      "inputs": [
        {
          "internalType": "uint256",
          "name": "indexOfPlayer",
          "type": "uint256"
        }
      ],
      "name": "getPlayer",
      "outputs": [
        {
          "internalType": "address",
          "name": "",
          "type": "address"
        }
      ],
      "stateMutability": "view",
      "type": "function"
    },
    {
      "inputs": [],
      "name": "getRaffleState",
      "outputs": [
        {
          "internalType": "enum Raffle.RaffleState",
          "name": "",
          "type": "uint8"
        }
      ],
      "stateMutability": "view",
      "type": "function"
    },
    {
      "inputs": [],
      "name": "getRecentWinner",
      "outputs": [
        {
          "internalType": "address",
          "name": "",
          "type": "address"
        }
      ],
      "stateMutability": "view",
      "type": "function"
    },
    {
      "inputs": [
        {
          "internalType": "bytes",
          "name": "",
          "type": "bytes"
        }
      ],
      "name": "performUpKeep",
      "outputs": [],
      "stateMutability": "nonpayable",
      "type": "function"
    },
    {
      "inputs": [
        {
          "internalType": "uint256",
          "name": "requestId",
          "type": "uint256"
        },
        {
          "internalType": "uint256[]",
          "name": "randomWords",
          "type": "uint256[]"
        }
      ],
      "name": "rawFulfillRandomWords",
      "outputs": [],
      "stateMutability": "nonpayable",
      "type": "function"
    }
  ],
  "bytecode": {
    "object": "0x61016060405234801561001157600080fd5b50604051610d12380380610d1283398101604081905261003091610087565b6001600160a01b0393909316608081905260a09590955260c09390935260e093909352610100929092526001600160401b03166101205263ffffffff16610140526002805460ff60a01b1916905542600155610112565b60008060008060008060c087890312156100a057600080fd5b86516020880151604089015191975095506001600160a01b03811681146100c657600080fd5b6060880151608089015191955093506001600160401b03811681146100ea57600080fd5b60a088015190925063ffffffff8116811461010457600080fd5b809150509295509295509295565b60805160a05160c05160e051610100516101205161014051610b996101796000396000610512015260006104db015260006104b5015260006105500152600061037301526000818160a501526102820152600081816101fe01526102400152610b996000f3fe6080604052600436106100915760003560e01c8063473f1ddc11610059578063473f1ddc1461013e5780635e6c102e146101705780636c7c8f171461019e578063c1c244e8146101be578063e55ae4e8146101d357600080fd5b806309bc33a7146100965780630ea3df38146100d8578063115cbaf5146100ed5780631fe543e3146101145780632cfcc53914610136575b600080fd5b3480156100a257600080fd5b507f00000000000000000000000000000000000000000000000000000000000000005b6040519081526020015b60405180910390f35b3480156100e457600080fd5b506000546100c5565b3480156100f957600080fd5b50600254600160a01b900460ff166040516100cf9190610852565b34801561012057600080fd5b5061013461012f3660046108c1565b6101f3565b005b610134610280565b34801561014a57600080fd5b506002546001600160a01b03165b6040516001600160a01b0390911681526020016100cf565b34801561017c57600080fd5b5061019061018b366004610973565b61036b565b6040516100cf929190610a08565b3480156101aa57600080fd5b506101346101b9366004610a60565b610418565b3480156101ca57600080fd5b506001546100c5565b3480156101df57600080fd5b506101586101ee366004610ad2565b6105f1565b336001600160a01b037f000000000000000000000000000000000000000000000000000000000000000016146102725760405163073e64fd60e21b81523360048201526001600160a01b037f00000000000000000000000000000000000000000000000000000000000000001660248201526044015b60405180910390fd5b61027c8282610620565b5050565b7f00000000000000000000000000000000000000000000000000000000000000003410156102c15760405163384b5a2b60e11b815260040160405180910390fd5b6000600254600160a01b900460ff1660018111156102e1576102e161083c565b146102ff5760405163349289c560e21b815260040160405180910390fd5b600080546001810182558180527f290decd9548b62a8d60345a988386fc84ba6bc95484008f6362f93160ef3e5630180546001600160a01b0319163390811790915560405190917f819fbd717c9d0b421352c5116a644ca68ba176960c33f406f08d98a27370ca2791a2565b6000606060007f0000000000000000000000000000000000000000000000000000000000000000600154426103a09190610aeb565b101590506000600260149054906101000a900460ff1660018111156103c7576103c761083c565b600054901591504715159015158380156103de5750825b80156103e75750815b80156103f05750805b60408051808201909152600381526203078360ec1b6020820152909890975095505050505050565b60006104326040518060200160405280600081525061036b565b50905061043e8161075d565b8061049157600054600254479190600160a01b900460ff1660018111156104675761046761083c565b604051632c2193d560e11b8152600481019390935260248301919091526044820152606401610269565b60028054600160a01b60ff60a01b199091161790556040516305d3b1d360e41b81527f000000000000000000000000000000000000000000000000000000000000000060048201527f000000000000000000000000000000000000000000000000000000000000000067ffffffffffffffff166024820152600360448201527f000000000000000000000000000000000000000000000000000000000000000063ffffffff166064820152600160848201526000906001600160a01b037f00000000000000000000000000000000000000000000000000000000000000001690635d3b1d309060a4016020604051808303816000875af1158015610599573d6000803e3d6000fd5b505050506040513d601f19601f820116820180604052508101906105bd9190610b12565b60405190915081907fcd6e45c8998311cab7e9d4385596cac867e20a0587194b954fa3a731c93ce78b90600090a250505050565b600080828154811061060557610605610b2b565b6000918252602090912001546001600160a01b031692915050565b6000805482518390839061063657610636610b2b565b60200260200101516106489190610b41565b9050600080828154811061065e5761065e610b2b565b600091825260208083209190910154600280546001600160a81b0319166001600160a01b039092169182179055604080518481529283019081905291519093506106a99291906107c2565b50426001556040516001600160a01b038216907fb112587e57bfa970257f3d54fc52859c6300f6bd7a982462c320fed45c2530ed90600090a26000816001600160a01b03164760405160006040518083038185875af1925050503d806000811461072f576040519150601f19603f3d011682016040523d82523d6000602084013e610734565b606091505b50509050806107565760405163a1d04b3960e01b815260040160405180910390fd5b5050505050565b604051811515602482015261079e9060440160408051601f198184030181529190526020810180516001600160e01b03166332458eed60e01b1790526107a1565b50565b80516a636f6e736f6c652e6c6f67602083016000808483855afa5050505050565b828054828255906000526020600020908101928215610817579160200282015b8281111561081757825182546001600160a01b0319166001600160a01b039091161782556020909201916001909101906107e2565b50610823929150610827565b5090565b5b808211156108235760008155600101610828565b634e487b7160e01b600052602160045260246000fd5b602081016002831061087457634e487b7160e01b600052602160045260246000fd5b91905290565b634e487b7160e01b600052604160045260246000fd5b604051601f8201601f1916810167ffffffffffffffff811182821017156108b9576108b961087a565b604052919050565b600080604083850312156108d457600080fd5b8235915060208084013567ffffffffffffffff808211156108f457600080fd5b818601915086601f83011261090857600080fd5b81358181111561091a5761091a61087a565b8060051b915061092b848301610890565b818152918301840191848101908984111561094557600080fd5b938501935b838510156109635784358252938501939085019061094a565b8096505050505050509250929050565b6000602080838503121561098657600080fd5b823567ffffffffffffffff8082111561099e57600080fd5b818501915085601f8301126109b257600080fd5b8135818111156109c4576109c461087a565b6109d6601f8201601f19168501610890565b915080825286848285010111156109ec57600080fd5b8084840185840137600090820190930192909252509392505050565b821515815260006020604081840152835180604085015260005b81811015610a3e57858101830151858201606001528201610a22565b506000606082860101526060601f19601f830116850101925050509392505050565b60008060208385031215610a7357600080fd5b823567ffffffffffffffff80821115610a8b57600080fd5b818501915085601f830112610a9f57600080fd5b813581811115610aae57600080fd5b866020828501011115610ac057600080fd5b60209290920196919550909350505050565b600060208284031215610ae457600080fd5b5035919050565b81810381811115610b0c57634e487b7160e01b600052601160045260246000fd5b92915050565b600060208284031215610b2457600080fd5b5051919050565b634e487b7160e01b600052603260045260246000fd5b600082610b5e57634e487b7160e01b600052601260045260246000fd5b50069056fea2646970667358221220dfe8f6de78078d1544bda1ba341d438c9db6b1a22fa25ba045c5337dc63512cf64736f6c63430008130033",
    "linkReferences": {}
  },
  "methodIdentifiers": {
    "checkUpKeep(bytes)": "5e6c102e",
    "enterRaffle()": "2cfcc539",
    "getEntranceFee()": "09bc33a7",
    "getLastTimeStamp()": "c1c244e8",
    "getLengthOfPlayers()": "0ea3df38",
    "getPlayer(uint256)": "e55ae4e8",
    "getRaffleState()": "115cbaf5",
    "getRecentWinner()": "473f1ddc",
    "performUpKeep(bytes)": "6c7c8f17",
    "rawFulfillRandomWords(uint256,uint256[])": "1fe543e3"
  },
  "id": 28
}